S01800006C6364666666666666666666666666662E73726563AB
S11300000C942A000C9468010C9426010C9447006B
S11300100C9447000C9447000C9447000C94470040
S11300200C9447000C9447000C9447000C94470030
S11300300C9447000C9447000C9447000C94470020
S11300400C9447000C9447000C9447000C94470010
S11300500C94470011241FBECFE5D8E0DEBFCDBF0E
S113006010E0A0E6B0E0E4E6F4E002C005900D92F2
S1130070A638B107D9F720E0A6E8B0E001C01D9288
S1130080A839B207E1F70E94E3010C9430020C9402
S1130090000094989598E9EFF0E03197F1F700C0EB
S11300A00000969AE9EFF0E03197F1F700C0000004
S11300B0982F907F95BBE9EFF0E03197F1F700C0FE
S11300C000009698E9EFF0E03197F1F700C00000E6
S11300D0969AE9EFF0E03197F1F700C00000F0E103
S11300E08F9FC001112485BB89EF90E00197F1F740
S11300F000C000009698E9EFF0E03197F1F700C0F6
S11301000000089581B3806781BB84B3806F84BB92
S113011082E00E94490088E20E9449008CE00E942B
S1130120490081E00E9449000895949A9598E9EF66
S1130130F0E03197F1F700C00000969AE9EFF0E0A3
S11301403197F1F700C00000982F907F95BBE9EF3D
S1130150F0E03197F1F700C000009698E9EFF0E085
S11301603197F1F700C00000969AE9EFF0E031977B
S1130170F1F700C00000F0E18F9FC001112485BB9E
S113018089EF90E00197F1F700C000009698E9EF3D
S1130190F0E03197F1F700C0000008951F93CF936A
S11301A0DF93EC018881882351F010E00E949500D0
S11301B01F5FFE01E10FF11D80818111F7CFDF91F7
S11301C0CF911F910895813031F070F0823031F079
S11301D0833039F00AC090E4960F07C090E1960F7F
S11301E004C090E5960F01C0962F892F80680E9465
S11301F049000895CF93DF93EA010E94E300CE0102
S11302000E94CE00DF91CF9108958FB78F778FBF73
S11302108A98929A8BB780648BBF85B7836085BFB9
S11302208FB780688FBF08958FB78F778FBF8B98F4
S1130230939A8BB780688BBF85B7886085BF85B775
S11302408B7F85BF8FB780688FBF08951F920F92F1
S11302500FB60F9211242F933F938F939F93809106
S113026088009091890020916000309161002150B4
S113027031098217930774F401969093890080934F
S1130280880080918A0090918B00019690938B0056
S113029080938A0080918A0090918B0004977CF06F
S11302A083E090E090938B0080938A008091860095
S11302B090918700019690938700809386009F9188
S11302C08F913F912F910F900FBE0F901F90189513
S11302D01F920F920FB60F9211248F939F938091C8
S11302E08800909189001816190674F40197909368
S11302F089008093880080918A0090918B000197F7
S113030090938B0080938A0080918A0090918B0057
S113031099236CF410928B0010928A0080918600CD
S113032090918700019790938700809386009F9116
S11303308F910F900FBE0F901F901895CF93DF935E
S1130340989905C0809188009091890039C0809166
S1130350860090918700992384F51092870010926B
S113036086002BC080918A0090918B00C817D90712
S113037041F460E08C2F0E94E3008EE30E9495001C
S113038007C060E08C2F0E94E30080E20E94950089
S1130390E0918600F0918700EC0FFD1FEE0FFF1F28
S11303A0E457FF4F4081518161E08C2F0E94FA0095
S11303B02196C430D105B1F6C3CFC0E0D0E0D2CF8E
S11303C0DF91CF910895CF93DF93A098A89A0E94CC
S11303D0820083EC99E00197F1F700C0000082E607
S11303E090E090938D0080938C0088E690E0909349
S11303F08F0080938E008EE690E09093910080931E
S1130400900084E790E090939300809392008AE7B1
S113041090E0909395008093940080E890E090930E
S11304209700809396000E94050183EC99E0019760
S1130430F1F700C000000E9414010E949E01EC012B
S113044081E00E944900CC0FDD1FC457DF4F888133
S113045099810E94CE0080E090E0DF91CF910895D1
S1070460F894FFCF3A
S1130464060066696C65300066696C65310066690E
S11304746C65320066696C65330066696C653400CA
S109048466696C65350099
S9030000FC
