:100000000C942A000C9408070C94C6060C94470024
:100010000C9447000C9447000C9447000C94470044
:100020000C9447000C9447000C9447000C94470034
:100030000C9447000C9447000C9447000C94470024
:100040000C9447000C9447000C9447000C94470014
:100050000C94470011241FBECFE5D8E0DEBFCDBF12
:1000600010E0A0E6B0E0EEE8F4E102C005900D92E9
:10007000A23FB107D9F723E0A2EFB0E001C01D9283
:10008000AF33B207E1F70E94D4070C94450A0C94F1
:100090000000CF92DF92EF92FF92A0911403B091F3
:1000A0001503C090FC00D090FD00E090FE00F090A1
:1000B000FF009B01AC0122503109410951090E9406
:1000C0002B0A6C0D7D1D8E1D9F1DFF90EF90DF9004
:1000D000CF9008954F925F926F927F928F929F92EE
:1000E000AF92BF92CF92DF92EF92FF920F931F9346
:1000F000CF93DF93C42F28013901409133035091EE
:1001000034034B015C01880C991CAA1CBB1C880C95
:10011000991CAA1CBB1C2091040130910501C090C0
:100120002A03D0902B03E0902C03F0902D03C40EF3
:10013000D51EE11CF11C40E050E0C501B4010E9455
:10014000090AC20ED31EE41EF51E2091040130914F
:10015000050140E050E0C501B4010E94090A4B01CD
:100160005C01DAE0C701B6010E948109882311F021
:10017000D150C1F7F401EC5EFE4FC11108C080817F
:100180009181A281B381BC01CD019F700BC04082DF
:10019000518262827382C701B6010E94B00960E099
:1001A00070E0CB01DF91CF911F910F91FF90EF9005
:1001B000DF90CF90BF90AF909F908F907F906F9087
:1001C0005F904F900895CF92DF92EF92FF92CF937E
:1001D000DF93D82FC62F69017A0180912A0390916D
:1001E0002B03A0912C03B0912D03BC01CD016F5FB7
:1001F0007F4F8F4F9F4F0E94810940911401509172
:100200001501609116017091170142355245614602
:10021000714409F059C04091F8025091F90260917F
:10022000FA027091FB02423752476144714609F06D
:100230004FC04091100350911103609112037091CF
:1002400013034115510565457A4A09F045C0C111AE
:1002500014C0D13049F46091FC027091FD0280918C
:10026000FE029091FF023BC0609100037091010378
:10027000809102039091030332C0D13049F4C092BF
:10028000FC02D092FD02E092FE02F092FF0208C052
:10029000C0920003D0920103E0920203F0920303A4
:1002A00080912A0390912B03A0912C03B0912D03F0
:1002B000BC01CD016F5F7F4F8F4F9F4F0E94B009F0
:1002C0006FEF7FEFCB010BC06FEF7FEFCB0107C06C
:1002D0006FEF7FEFCB0103C06FEF7FEFCB01DF91BB
:1002E000CF91FF90EF90DF90CF900895CF92DF9263
:1002F000EF92FF920F931F93CF93DF9310922A03F5
:1003000010922B0310922C0310922D0360E070E0EA
:10031000CB010E948109809114018D7F893E01F1FA
:10032000809112039091130385359A4A09F0AAC06F
:100330006091DA027091DB028091DC029091DD0223
:1003400060932A0370932B0380932C0390932D03C7
:100350000E948109809114018D7F893E09F094C02B
:1003600080911F01909120019093050180930401D9
:100370008091210190E09093150380931403E09104
:100380002201F0912301F0933403E0933303809131
:10039000400190914101A0914201B09143018093AD
:1003A0000A0190930B01A0930C01B0930D01C09131
:1003B0003303D0913403A09124012091380130916E
:1003C000390140913A0150913B01B0E00E942B0A63
:1003D00000913001109131012091320130913301AF
:1003E0000C0F1D1F211D311D060F171F281F391F40
:1003F0000093FC001093FD002093FE003093FF005B
:10040000409114035091150300913401109135016E
:1004100020913601309137010E1B1F0B2109310944
:1004200068017901C61AD70AE80AF90AC701B601B4
:100430009A0140E050E00E94090A2093060130939F
:100440000701409308015093090120E030E0A90121
:1004500060E081E00E94E300009106011091070135
:10046000209108013091090106171707280739075D
:1004700020F410923A0380E008C081E080933A03B0
:1004800080E003C081E001C081E0DF91CF911F9146
:100490000F91FF90EF90DF90CF900895CF93DF936F
:1004A000CDB7DEB72B970FB6F894DEBF0FBECDBF2A
:1004B000FC0120812E3279F0319621E031913E32DB
:1004C00021F02F5F2C30D1F761C0293008F060C0D7
:1004D000211105C001C020E0322F40E20EC0482F9C
:1004E000DE011196E82FF92F31913D933E2F341BF9
:1004F0003217D0F3283080F30AC0E1E0F0E0EC0FCF
:10050000FD1FE30FF11D40833F5F3830B0F341E042
:10051000420F28E0FC01E40FF11D3081311103C0CE
:100520002B3050F017C04F5FE1E0F0E0EC0FFD1F03
:10053000E20FF11D30830EC040E231E0320FE1E006
:10054000F0E0EC0FFD1FE20FF11D40833B3029F07E
:10055000232FF3CF2F5F2B30E8F29E01245F3F4F14
:10056000FE01319640815FE9540F5A3110F4405238
:1005700040833196E217F307A9F7DC01FE013196BB
:1005800081918D932E173F07D9F704C081E003C0F6
:1005900081E001C080E02B960FB6F894DEBF0FBE5D
:1005A000CDBFDF91CF910895CF92DF92EF92FF926E
:1005B000CF93C82F6A017B0121E0D222EE24FF24D1
:1005C000CD28CE28CF2861F4DB01CA01072E79E0BF
:1005D000B695A795979587957A95D1F7702D0EC00A
:1005E000DB01CA01072E79E0B695A7959795879507
:1005F0007A95D1F7702D0196A11DB11D6C017D0179
:1006000027E0C222DD24EE24FF24CD28CE28CF28E7
:1006100059F46C017D01689412F8F694E794D7942C
:10062000C7941694D1F70FC06C017D01689412F83D
:10063000F694E794D794C7941694D1F78FEFC81A1D
:10064000D80AE80AF80A90913A039923D1F020E0F9
:1006500030E0A90160E081E00E94E300C11107C021
:100660009B01AC012C0D3D1D4E1D5F1D06C09B0165
:10067000AC012C193D094E095F0961E081E00E943F
:10068000E300CF91FF90EF90DF90CF9008952F92ED
:100690003F924F925F926F927F928F929F92AF9212
:1006A000BF92CF92DF92EF92FF920F931F93CF935F
:1006B000DF93CDB7DEB765970FB6F894DEBF0FBEF8
:1006C000CDBF8F877C836B83E0900A01F0900B0194
:1006D00000910C0110910D01EB86FC860D871E87A1
:1006E000612C712C81508A870F2EF4E14F2EF1E09E
:1006F0005F2EF02D0FEF401A500A212C312C8B0168
:100700000F5F1F4F598A488A7801D22CC32C1301DE
:100710006B857C858D859E850E9449004B015C011F
:100720008091140390911503892B09F43EC1412C4B
:10073000512C612C712C11E01D8308891989D3017A
:10074000C201880D991DAA1DBB1D8E839F83A8879A
:10075000B987BC01CD010E9481098091040190916B
:100760000501892B09F410C1E4E1F1E060E070E0DB
:100770004A852E2F9F2F8081811103C0423020F4A3
:1007800036C1853E09F4F5C0DB01AC5EBE4F1B9659
:100790003C913F3009F4EDC0423008F0C0C0AB815D
:1007A000BC813C918313E5C0FB8AEA8AD801A60F7D
:1007B000B71F8D813A822982FD8BEC8B5D91EA898E
:1007C000FB893191FB8BEA8B531304C08F5F8B3015
:1007D000A9F70AC029803A80EC89FD898B3009F09D
:1007E000C8C0622E792E02C0622E792EFF85F130AC
:1007F00009F043C0EE80FF8008851985E0923B0335
:10080000F0923C0300933D0310933E03AB0160E084
:1008100070E04093F8005093F9006093FA007093F1
:10082000FB00D30154964D915C91559760E070E0C8
:10083000BA01552744275A96CD90DC905B97E12C5E
:10084000F12C4C295D296E297F2940933503509363
:10085000360360933703709338035C964D915D9136
:100860006D917C915F9740930001509301016093DB
:10087000020170930301822FC2C0F301848895881E
:10088000A12CB12C540199248824828D938DA0E051
:10089000B0E0882A992AAA2ABB2A85EE80836E8135
:1008A0007F81888599850E94B009D3015C964D911E
:1008B0005D916D917C915F9780E00E94D40220E071
:1008C00030E0A90160E082E00E94E300861697060E
:1008D000A806B90630F4A501940161E082E00E9407
:1008E000E30000E010E0980140E0C501B4010E947F
:1008F0006A006B017C0100E010E0980141E0C50155
:10090000B4010E946A00B7EFCB16BFEFDB06EB061F
:10091000BFE0FB0608F06EC046015701E2CF81112F
:1009200006C0309213012092120190E068C030316D
:10093000E9F03830D9F08D2D9C2D9101220F331F15
:100940002A5E3C4FFB8BEA8BD9019F01FD01AA89EE
:10095000BB895D91BB8BAA8BA081B181A80FB91F08
:100960005C9301968B30910591F7F901BFEF2B1A3B
:100970003B0A605E7F4F8091040190910501B09623
:100980006817790708F4F5CEEFEF4E1A5E0A6E0A83
:100990007E0A8091140390911503A0E0B0E0481600
:1009A00059066A067B0608F4CACE00E010E020E093
:1009B00030E040E06B857C858D859E850E946A00D5
:1009C0006B877C878D879E87673FFFEF7F078F0749
:1009D000FFE09F0790F4672B682B692B09F098CEF6
:1009E00082E690E00E948F0680E090E008C080E000
:1009F00090E005C080E090E002C080E090E0659665
:100A00000FB6F894DEBF0FBECDBFDF91CF911F911F
:100A10000F91FF90EF90DF90CF90BF90AF909F909D
:100A20008F907F906F905F904F903F902F900895A0
:100A30002F923F924F925F926F927F928F929F92EE
:100A4000AF92BF92CF92DF92EF92FF920F931F93DC
:100A5000CF93DF9300D000D01F92CDB7DEB7182F11
:100A60007B01CB010E944E028111A9C0B70181E038
:100A70000E9447039C01009709F4A3C0113009F4B8
:100A8000A2C0DC0154964D905C905597612C712C5E
:100A90003201552444245A964D915C915B9760E055
:100AA00070E0D301C201842B952BA62BB72B898331
:100AB0009A83AB83BC83D9015C964D905D906D9019
:100AC0007C905F97C12CD12C7601212C312C69812F
:100AD0007A818B819C810E9449004B015C0181E0FD
:100AE0000E94FE058091140390911503892B09F44F
:100AF0004DC02D82C501B401BD816B0F711D811DDB
:100B0000911D0E94810900E0132DF801EC5EFE4F5B
:100B100080818D3059F4F801EB5EFE4F80818A3080
:100B200029F481E00E94FE050E5F1F4FF801EC5E84
:100B3000FE4F80810E945606B701A6014F5F5F4FAE
:100B40006F4F7F4FC414D504E604F704F0F5EFE3CC
:100B5000FCE93197F1F700C000000F5F1F4F01154E
:100B6000F2E01F0718F46A017B01CFCF2D812F5FC0
:100B70002D83809114039091150330E028173907D5
:100B800018F46A017B01B6CF6A017B0100E010E036
:100B90009801422D69817A818B819C810E946A0033
:100BA00069837A838B839C83672B682B692B09F07D
:100BB0008ECF82E690E00E948F0680E007C082E040
:100BC00005C080E003C081E001C080E00F900F907D
:100BD0000F900F900F90DF91CF911F910F91FF9089
:100BE000EF90DF90CF90BF90AF909F908F907F90CD
:100BF0006F905F904F903F902F900895C198C2984A
:100C0000E9EFF0E03197F1F700C00000C39AE9EF97
:100C1000F0E03197F1F700C00000982F907F9BBB68
:100C2000E9EFF0E03197F1F700C00000C398E9EF79
:100C3000F0E03197F1F700C00000C39AE9EFF0E06F
:100C40003197F1F700C00000F0E18F9FC00111243F
:100C50008BBB89EF90E00197F1F700C00000C398CB
:100C6000E9EFF0E03197F1F700C0000083EC99E084
:100C70000197F1F700C00000089587B38E6087BB2D
:100C80008AB3806F8ABB82E00E94FE0588E20E94E0
:100C9000FE058CE00E94FE0581E00E94FE0583ECCB
:100CA00099E00197F1F700C000000895C19AC29839
:100CB000E9EFF0E03197F1F700C00000C39AE9EFE7
:100CC000F0E03197F1F700C00000982F907F9BBBB8
:100CD000E9EFF0E03197F1F700C00000C398E9EFC9
:100CE000F0E03197F1F700C00000C39AE9EFF0E0BF
:100CF0003197F1F700C00000F0E18F9FC00111248F
:100D00008BBB89EF90E00197F1F700C00000C3981A
:100D1000E9EFF0E03197F1F700C0000008951F936C
:100D2000CF93DF93EC018881882351F010E00E947B
:100D300056061F5FFE01E10FF11D80818111F7CF83
:100D4000DF91CF911F910895813031F070F08230A2
:100D500031F0833039F00AC090E4960F07C090E17B
:100D6000960F04C090E5960F01C0962F892F8068DA
:100D70000E94FE050895CF93DF93EA010E94A40626
:100D8000CE010E948F06DF91CF9108951F920F929E
:100D90000FB60F9211242F933F938F939F938091BF
:100DA000F4009091F5002091600030916100215095
:100DB00031098217930774F401969093F50080939C
:100DC000F4008091F6009091F70001969093F7005F
:100DD0008093F6008091F6009091F70004977CF0E4
:100DE00083E090E09093F7008093F6008091F2000A
:100DF0009091F30001969093F3008093F2009F91FD
:100E00008F913F912F910F900FBE0F901F901895CB
:100E10001F920F920FB60F9211248F939F93809180
:100E2000F4009091F5001816190674F40197909348
:100E3000F5008093F4008091F6009091F7000197FF
:100E40009093F7008093F6008091F6009091F70060
:100E500099236CF41092F7001092F6008091F20042
:100E60009091F30001979093F3008093F2009F918B
:100E70008F910F900FBE0F901F9018958FEE88BB2B
:100E8000BC9ABD9ABF9ABE98A098A89A0895CF938D
:100E9000DF93989905C08091F4009091F50039C0D6
:100EA0008091F2009091F300992384F51092F30061
:100EB0001092F2002BC08091F6009091F700C817B5
:100EC000D90741F460E08C2F0E94A4068EE30E94B3
:100ED000560607C060E08C2F0E94A40680E20E94A4
:100EE0005606E091F200F091F300EC0FFD1FEE0FBB
:100EF000FF1FEA5EFC4F4081518161E08C2F0E9410
:100F0000BB062196C430D105B1F6C3CFC0E0D0E016
:100F1000D2CFDF91CF9108958FB78F778FBF8A9807
:100F2000929A8BB780648BBF85B7836085BF8FB77C
:100F300080688FBF08958FB78F778FBF8B98939AF4
:100F40008BB780688BBF85B7886085BF85B78B7F7F
:100F500085BF8FB780688FBF0895F8940E94FA0903
:100F60008FE19EE40197F1F700C000000E943E0768
:100F70008FE19EE40197F1F700C000000E943D065A
:100F80000E948C078FE19EE40197F1F700C00000FA
:100F90000E949B078FE19EE40197F1F700C00000DB
:100FA00015BE1BBE19BE08951F93CF93DF930E94F9
:100FB000AD071092390381E00E94FE0580E790E0C2
:100FC0000E948F06CAE0D0E08EE20E9456060E9480
:100FD000DD08182F8823D1F121972097A9F746C063
:100FE00085E790E00E948F0602C0123009F005C02C
:100FF00087E890E00E948F06FACFFFCF85E990E066
:101000000E948F060EC08DE990E00E948F0609C0F5
:101010008AEB90E00E948F0604C082EC90E00E9470
:101020008F0680E58DB9709A8FEC97E00197F1F704
:1010300000C000000E9476018823F9F081E00E9440
:10104000FE0580ED90E00E948F0617C081E00E94AF
:10105000FE0588EE90E00E948F0680913903823071
:1010600091F28330A9F28130C1F6C8CF81E00E94AD
:10107000FE05113009F0B9CFB3CF41EE50E060E08A
:1010800081E00E94BB0681E00E94FE0560E070E006
:1010900080E00E94470381E00E94FE050E9447070E
:1010A000EC0181E00E94FE05FE01EE0FFF1FEA5EEB
:1010B000FC4F808191810E948F069FEF2DE389E490
:1010C000915020408040E1F700C00000FE01EE0F8B
:1010D000FF1FEA5EFC4F6081718180E00E9418056D
:1010E00080E090E0DF91CF911F910895CF92DF9241
:1010F000EF92FF92CF93C82F6A017B0180912E035C
:10110000811115C08FEE8C0F823040F088EE8C0F6D
:10111000823020F080EE8C0F823048F40B2EB9E044
:10112000CC0CDD1CEE1CFF1CBA95D1F7B02DC49879
:101130008C2F80640E94FE098F2D0E94FE098E2D47
:101140000E94FE098D2D0E94FE098C2D0E94FE0931
:10115000C83021F487E80E94FE0907C085E90E9493
:10116000FE0903C0FA9411F41BC0F12C0E94030A7B
:101170008F3FC1F3F82E811115C0CA33A1F40E942C
:10118000030A86FF04C081E080932E0302C0109200
:101190002E030E94030A0E94030A0E94030A03C04E
:1011A000F82E01C0F82E0E94030AC49A8F2DCF9109
:1011B000FF90EF90DF90CF9008950F931F93CF9300
:1011C000DF931AE08FEF0E94FE091150D9F7C498FF
:1011D00040E050E0BA0180E00E947608C0E2D0E032
:1011E0000AC040E050E0BA0180E00E9476082197F2
:1011F000209709F473C08130A1F7C49A8FEF0E9441
:10120000FE098FEF0E94FE094AEA51E060E070E0BB
:1012100088E00E947608CEEFD0E00FC04AEA51E0A5
:1012200060E070E088E00E9476082197209729F41A
:1012300081E08093390301E003C0813079F702E057
:1012400040E050E0BA0187E30E94760840E050E0B9
:1012500060E070E489E20E947608CEEFD0E010C032
:1012600040E050E0BA0187E30E94760840E050E099
:1012700060E070E489E20E9476082197209781F16E
:101280008111EECF10922E030230D1F42BC040E03A
:1012900050E0BA018AE30E9476082197209719F45A
:1012A0001092390302C08111F2CF80912E03813058
:1012B00021F482E08093390303C083E080933903F3
:1012C00040E050E0BA018BE30E94760840E052E033
:1012D00060E070E080E10E9476080DC011E00BC074
:1012E00012E009C040E050E0BA018AE30E947608AB
:1012F000CEEFD0E0D8CF812FDF91CF911F910F910A
:101300000895CF93DF93AB01BC0181E10E94760881
:10131000811123C0C498C0E0D0E006C02197209777
:1013200019F4C49A81E019C00E94030A8E3FB1F7F4
:10133000C0E0D0E00E94030AFE01EC5EFE4F808315
:101340002196C11582E0D807A9F70E94030A0E94DE
:10135000030A0E94030AC49A80E0DF91CF910895A6
:10136000CF93DF93AB01BC0188E10E947608811125
:101370003EC0C4988EEF0E94FE09C0E0D0E0FE019E
:10138000EC5EFE4F80810E94FE092196C11522E08D
:10139000D207A9F78FEF0E94FE098FEF0E94FE0986
:1013A0000E94030A982F9F71953039F0C49A1FC08C
:1013B000219629F4C49A81E01AC0C0E0D0E00E94CE
:1013C000030A8823A9F3C49A8FEF0E94FE09C498E8
:1013D00008C0CE010196219619F4C49A81E007C095
:1013E000EC010E94030A8823A1F3C49A80E0DF91F4
:1013F000CF91089582E58DB91EB808958FB9779B76
:10140000FECF8FB108958FEF8FB9779BFECF8FB14D
:101410000895A1E21A2EAA1BBB1BFD010DC0AA1F35
:10142000BB1FEE1FFF1FA217B307E407F50720F04D
:10143000A21BB30BE40BF50B661F771F881F991FC8
:101440001A9469F760957095809590959B01AC0111
:10145000BD01CF0108950E94360AA59F900DB49F4B
:10146000900DA49F800D911D11240895A29FB0019D
:10147000B39FC001A39F700D811D1124911DB29FC8
:0E148000700D811D1124911D0895F894FFCF69
:10148E000A006572726F7220636C757374657200F8
:10149E00696E6974007364206E6F74206465746580
:1014AE00637465642E2E00496E6974206661696CE2
:1014BE0065642E2E0056657220312E7800486967BD
:1014CE00682043617061636974792043617264209E
:1014DE004465746563746564210056657220322E0E
:1014EE007800556E6B6E6F776E20636172642100AB
:1014FE004641543332206E6F7420666F756E6421D0
:10150E000066696E697368006E6F206572726F7225
:02151E002000AB
:00000001FF
